:020000040800F2
:10000000380700203D02000851190008491900086E
:100010004D190008DF080008032200080000000056
:100020000000000000000000000000002D1A000881
:10003000E3080008000000008D190008E11A00081C
:10004000570200085702000857020008570200082C
:10005000570200085702000857020008570200081C
:10006000570200085702000857020008570200080C
:1000700057020008570200085702000857020008FC
:1000800057020008570200085702000857020008EC
:1000900057020008570200085702000857020008DC
:1000A00057020008570200085702000857020008CC
:1000B000570200080000000000000000570200087E
:1000C00057020008570200085702000857020008AC
:1000D000570200085702000857020008570200089C
:1000E000570200085702000800000000000000004E
:1000F0000000000000000000000000000000000000
:10010000000000005702000800000000570200082D
:100110000000000000000000951B000857020008C6
:10012000570200085702000857020008570200084B
:10013000570200080000000000000000000000005E
:10014000570200085702000857020008000000008C
:10015000570200085702000857020008570200081B
:10016000570200085702000857020008000000006C
:1001700057020008570200080000000000000000BD
:1001800057020008570200085702000800F002F862
:1001900000F045F80AA090E8000C82448344AAF1DC
:1001A0000107DA4501D100F03AF8AFF2090EBAE8DA
:1001B0000F0013F0010F18BFFB1A43F0010318479B
:1001C0004024000060240000103A24BF78C878C1A1
:1001D000FAD8520724BF30C830C144BF04680C604D
:1001E000704700000023002400250026103A28BF95
:1001F00078C1FBD8520728BF30C148BF0B60704799
:10020000642900F02D81002070471FB502F0CAF963
:100210009DE8030000F08AF91FBD10B510BD00F085
:10022000E1FA1146FFF7F1FF02F000F800F0FFFAE3
:1002300003B4FFF7F2FF03BC01F0E5FF0948804774
:1002400009480047FEE7FEE7FEE7FEE7FEE7FEE7B8
:10025000FEE7FEE7FEE7FEE704480549054A064BD0
:1002600070470000451B00088D0100083801002080
:1002700038070020380300203803002070B5A0FBA9
:100280000140B4F1805170F1000024BF002070BD26
:10029000204600F07AF905001CBF214600F010FA54
:1002A000284670BD70B50446051F00F023F90068AC
:1002B000002C14BF446870BD002C18BFAC423CBF7A
:1002C00020466468F8D301680A18AA4218BF45603E
:1002D00003D12A6805461144016028684119A142EA
:1002E0001CBF6C6070BD616869602168084428604B
:1002F00070BD53EA020C00F069802DE9F04B4FF01D
:100300000006002B1FBFB3FA83F503FA05F424FAA5
:1003100005F65E4012BF1643B2FA82F502FA05F402
:10032000C5F120051EBF22FA05FC44EA0C04203565
:1003300056EA044C4FEA144418BF641C4FF00008FE
:100340004FF00009904271EB030C39D3002919BF1B
:10035000B1FA81F701FA07F6B0FA80F700FA07F66A
:10036000C7F120071EBF20FA07FC46EA0C0620371B
:10037000B6FBF4FCA7EB0507103F07F01F0BCBF112
:1003800020060CFA0BFB2CFA06F644BFB3460026F7
:10039000202FA4BF5E464FF0000B5BEA060C08BF9F
:1003A0004FF0010B19EB0B09ABFB027C48EB060885
:1003B000C01B06FB02CC0BFB03CC71EB0C01C1E7AD
:1003C0000B46024641464846BDE8F08B13B54FF058
:1003D00000004FF00001AFF30080BDE81C40704703
:1003E0000FB4044910B503AA029800F057F910BCE5
:1003F0005DF814FB080000202DE9F0410E4604468C
:10040000002020622046E168884730B3252805D0C7
:10041000D4E901219047206A401CF2E7E1682046B8
:1004200000278847050018D0A5F14100192802D8F7
:1004300020354FF400673246294620462760FFF7F3
:10044000DFFE40B1012804D0F61D26F0070608366D
:10045000D8E7361DD6E72846DAE7206ABDE8F081FE
:100460002DE9F0410646002410687529314616A58D
:1004700010D0AFF30080002802DA404213A507E055
:1004800031688A0701D512A502E0490704D511A5F4
:10049000012401E0AFF3008000210A2206F12407C5
:1004A00009E0B0FBF2FCB0FBF2F302FB1C003030C1
:1004B00078541846491C0028F3D123462A46304672
:1004C000BDE8F04100F090B8000000002D000000F1
:1004D0002B0000002000000001F0FF03114601B5D1
:1004E00043EA032242EA024200F0ECF801BD704701
:1004F0007047704700487047DC0000207047704725
:100500007047704738B504460A4600206946AFF385
:100510000080002808BF38BD02460099204600F040
:10052000FCF8012038BD012000F02EB9F8B5AFF37A
:100530000080054600200C46102000BF0646A81982
:10054000A0420DD9324669460020AFF30080070073
:1005500008BF00F019F90098A04218BF0546C41959
:10056000FFF7C8FF05600746F01D20F00700461999
:10057000284600F0CBF8B44208BFF8BDA21B3146B4
:100580003868BDE8F84000F0C8B870B50646FFF717
:10059000B1FF056806F10B0020F00704B4429CBFD0
:1005A000002070BD2B466A68BAB11068A04210D313
:1005B00004F1080188423CBF5068586007D3516875
:1005C000101941601168091B016058601460101D0A
:1005D00070BD13465268002AE7D121462846FFF72E
:1005E00091FF0028DED170BD2DE9F0470D469946F8
:1005F0009246044600F124080168880604D5E069A3
:1006000021F01001216000E00120A84201DD471B1C
:1006100000E00027A1697A1902EB0900081AA0611D
:100620002078C00602D42046AFF30080002608E000
:10063000D4E901211AF806009047206A401C761C74
:1006400020624E45F4DB2078C0060AD52046AFF381
:10065000008006E0D4E9012130209047206A401C48
:100660002062381EA7F10107F4DC07E0D4E901217C
:1006700018F805009047206A401C2062281EA5F14A
:100680000105F3DC2046AFF300802078000602D598
:100690000220BDE8F0870120FBE70000074B70B5A2
:1006A0000D467B4400F059F80446284600F068F8EF
:1006B00010B14FF0FF3070BD204670BD671B0000C9
:1006C0004FF000020429C0F0128010F0030C00F07B
:1006D0006480CCF1040CBCF1020F18BF00F8012BB0
:1006E000A8BF20F8022BA1EB0C0100F056B85FEA7E
:1006F000C17C24BF00F8012B00F8012B48BF00F893
:10070000012B704700487047D40000200021016091
:10071000C0E90110704710207047034640688C46BE
:10072000002818BF88423CBF03464068F8D31868C9
:100730001844884207D00CF1030020F00700001D88
:10074000411A521A0146081D0A60FFF7ABBD0000AE
:1007500001694A1C02610878704700B58FB0CDE985
:1007600001310021059105497944CDE90310114675
:100770006846FFF741FE0FB000BD0000E5FFFFFF38
:10078000007B00F08000704710B500F05FF8BDE816
:10079000104000F055B84FF0000200B513469446E3
:1007A0009646203922BFA0E80C50A0E80C50B1F1C9
:1007B0002001BFF4F7AF090728BFA0E80C5048BFDD
:1007C0000CC05DF804EB890028BF40F8042B08BF7B
:1007D000704748BF20F8022B11F0804F18BF00F877
:1007E000012B70477546FFF78DFFAE460500694641
:1007F000534620F00700854618B020B5FFF72CFDC2
:10080000BDE820404FF000064FF000074FF0000811
:100810004FF0000B21F00701AC46ACE8C009ACE892
:10082000C009ACE8C009ACE8C0098D46704710B5F6
:100830000446AFF300802046BDE81040FFF7F8BC47
:10084000002801D001F0DFBC7047000010B501287E
:1008500005D0002103A000F022F8012010BD09A15D
:10086000F8E7000053494752544D454D3A204F7523
:1008700074206F662068656170206D656D6F727998
:10088000000000003A2048656170206D656D6F7250
:100890007920636F7272757074656400704770B50B
:1008A00005460C460A2000E06D1C00F011F835B139
:1008B00028780028F8D102E0641C00F009F814B18F
:1008C00020780028F8D1BDE870400A20AFF30080FE
:1008D00008B569468DF800000320ABBE08BD00BF17
:1008E000FEE7704778B503460022CBE0012696402C
:1008F0000D6805EA0604002C72D04D68022D02D066
:100900004D68122D13D1D60803F1200555F82600A5
:100910005507EE0E0F25B540A8435607F60E0D6994
:10092000B5402843D60803F1200545F8260018688D
:1009300056000325B540A8430D7905F00305560080
:10094000B540284318604D68012D08D04D68022D30
:1009500005D04D68112D02D04D68122D13D1986825
:1009600056000325B540A8435600CD68B54028433E
:100970009860586801259540A8430D79C5F3001586
:10098000954028435860D86856000325B540A843D1
:1009900056008D68B5402843D8604D6805F08055F5
:1009A000B5F1805F6DD100BF394D2D6E45F0010569
:1009B000374E356635462D6E05F00105009500BFB2
:1009C00000BF4FEAB635960855F8260095072E0F5A
:1009D0000F25B540A843B3F1904F02D1002515E093
:1009E0004FE02C4DAB4201D101250FE02A4DAB4227
:1009F00001D102250AE0294DAB4201D1032505E0D2
:100A0000274DAB4201D1042500E007259607360F9C
:100A1000B5402843234D960845F82600224D286806
:100A2000A0434D6805F48035B5F5803F00D12043E3
:100A30001D4D28602D1D2868A0434D6805F4003524
:100A4000B5F5003F00D12043174D2D1D28602D1D09
:100A50002868A0434D6805F48015B5F5801F00D1C6
:100A60002043114D083528602D1D2868A0434D688E
:100A700005F40015B5F5001F00D120430A4D0C35D3
:100A80002860521C0D68D540002D7FF42FAF78BD33
:100A9000001002400004004800080048000C004814
:100AA00000100048080001400004014001480068AF
:100AB000704700000400002002480068401C014903
:100AC000086070470400002010B50024032000F0E7
:100AD000A5F80F2000F008F808B1012401E000F0AB
:100AE0004DF8204610BD0000F0B587B00546002641
:100AF000002700222946362000F04EF8362000F06C
:100B00003EF800BF1948806D40F010001749886515
:100B10000846806D00F01000009000BF00BF01A9E2
:100B200002A800F053F9059E1EB900F077F90446BB
:100B300002E000F073F944000D48B4FBF0F0471EEA
:100B40000C480D49086040F2E7310B48C16047602E
:100B5000002101618160816100F059FD20B90648E2
:100B600000F070FD07B0F0BD0120FBE7001002406F
:100B700040420F00001000401C000020704700BFE2
:100B800000F01F02012191404209920002F1E0228F
:100B9000C2F8001100BF70472DE9F05F80460D4696
:100BA0001646002700F0D6FE074639462A46334649
:100BB00001F00700C0F1070ABAF1040F02D94FF0A3
:100BC000040A01E0C0F1070AD14600F1040ABAF1B3
:100BD000070F02D24FF0000A01E0A0F1030AD44649
:100BE0004FF0010A0AFA09FAAAF1010A0AEA020A0E
:100BF0000AFA0CFA4FF0010B0BFA0CFBABF1010BEC
:100C00000BEA030B4AEA0B042146404600F0AAFE19
:100C100000F000B830BCBDE8C09F000000BF00F08D
:100C20000702064B19684FF6FF031940044B0B43AC
:100C300043EA0221014B196000BF70470CED00E050
:100C40000000FA050248006800F4C0607047000028
:100C5000007000402DE9F04104460D4614B9012012
:100C6000BDE8F0815548006800F00700A8420ED2A8
:100C70005248006820F007002843504908600846A1
:100C8000006800F00700A84201D00120E8E72078C2
:100C900000F00100002840D06068032806D14848D1
:100CA000006800F00070D8B90120D9E76068022818
:100CB00006D14348006800F4003088B90120CFE72E
:100CC000606830B93E48006800F0020040B9012079
:100CD000C6E73B48006800F4806008B90120BFE720
:100CE0003748806820F00300616808433449886011
:100CF000FFF7DCFE064608E0FFF7D8FE801B41F256
:100D00008831884201D90320AAE72D48806800F085
:100D10000C006168B0EB810FEED1207800F002008A
:100D2000022807D12648806820F0F000A168084317
:100D3000234988602148006800F00700A8420ED9C6
:100D40001E48006820F0070028431C490860084638
:100D5000006800F00700A84201D0012080E7207859
:100D600000F00400042807D11548806820F4E060F2
:100D7000E168084312498860207800F008000828DC
:100D800008D10F48806820F46050216940EAC10012
:100D90000B49886000F066F809498968C1F30311BE
:100DA000084A515C01F01F01C840074908600F2044
:100DB000FFF79AFE0746384652E70000002002403F
:100DC00000100240B0250008000000200F22026041
:100DD0000D4A926802F0030242600B4A926802F0E8
:100DE000F0028260084A926802F4E062C260064A39
:100DF000926802F46052D2080261044A126802F05A
:100E000007020A6070470000001002400020024004
:100E100001480068704700000000002000B5FFF79F
:100E2000F7FF05498968C1F30221044A515C01F0CA
:100E30001F01C84000BD000000100240C02500088E
:100E400000B5FFF7E5FF05498968C1F3C221044AEF
:100E5000515C01F01F01C84000BD000000100240BD
:100E6000C02500082DE9F04100240020DFF800C172
:100E7000DCF808C00CF00C01DFF8F4C0DCF80CC0A2
:100E80000CF0030719B10C291ED1012F1CD1DFF87A
:100E9000E0C0DCF800C00CF0080CBCF1000F06D17B
:100EA000DFF8CCC0DCF894C0CCF3032405E0DFF815
:100EB000C0C0DCF800C0CCF30314DFF8B8C05CF8A5
:100EC000244041B9204606E0042901D12A4802E025
:100ED000082900D129480C2947D1DFF894C0DCF853
:100EE0000CC00CF00305DFF888C0DCF80CC0CCF3B4
:100EF000021C0CF10103012D1FD0022D02D0032D85
:100F00001AD10CE0DFF870C0BCFBF3FCDFF86080A6
:100F1000D8F80C80C8F306280CFB08F218E0DFF8BC
:100F20005CC0BCFBF3FCDFF84880D8F80C80C8F349
:100F300006280CFB08F20BE000BFB4FBF3FCDFF863
:100F40003080D8F80C80C8F306280CFB08F200BFEC
:100F500000BFDFF81CC0DCF80CC0CCF3416C0CF116
:100F6000010C4FEA4C06B2FBF6F0BDE8F081000040
:100F700000100240C82500080024F40000127A0086
:100F80002DE9F843044614B90120BDE8F883F84878
:100F9000806800F00C06F648C06800F0030720786F
:100FA00000F01000102875D11EB10C2E74D1012F45
:100FB00072D1EF48006800F0020018B1A06908B9CA
:100FC0000120E2E7EA48216A006800F0080020B149
:100FD000E748006800F0F00005E0E548943000685C
:100FE00000F47060000981421FD9206A00F0D0FC33
:100FF00008B10120C9E700BFDD48006840F00800E3
:10100000DB4908600846006820F0F000216A0843C8
:10101000D749086000BF0846406820F47F40E16976
:1010200040EA0120D24948601EE000BFD048006875
:1010300040F00800CE4908600846006820F0F00043
:10104000216A0843CA49086000BF0846406820F486
:101050007F40E16940EA0120C5494860206A00F00C
:1010600097FC08B1012090E7FFF7FCFEC0498968B2
:10107000C1F30311BF4A515C01F01F01C840BE49D2
:1010800008600F20FFF730FD8046B8F1000F4ED00A
:1010900040467AE74BE0FFE7A06980B3B4480068B8
:1010A00040F00100B2490860FFF700FD054606E088
:1010B000FFF7FCFC401B022801D9032065E7AC4880
:1010C000006800F002000028F2D000BFA8480068C5
:1010D00040F00800A64908600846006820F0F000CB
:1010E000216A0843A249086000BF0846406820F40E
:1010F0007F40E16940EA01209D49486017E0FFE731
:101100009B48006820F0010099490860FFF7CEFC79
:10111000054606E0FFF7CAFC401B022801D9032060
:1011200033E79348006800F002000028F2D12078ED
:1011300000F0010000285CD0082E03D00C2E0AD14C
:10114000032F08D18A48006800F4003088B3606833
:1011500078BB012019E700BF6068B0F5803F06D179
:101160008348006840F48030814908601AE0606874
:10117000B0F5A02F0BD17E48006840F480207C4958
:1011800008600846006840F4803008600AE078484B
:10119000006820F48030764908600846006820F432
:1011A0008020086000BF606890B1FFF77FFC0546B3
:1011B00007E01EE0FFF77AFC401B642801D90320FA
:1011C000E3E66B48006800F400300028F2D010E03D
:1011D000FFF76CFC054606E0FFF768FC401B64283F
:1011E00001D90320D1E66248006800F400300028ED
:1011F000F2D1207800F00200022852D1042E03D050
:101200000C2E14D1022F12D15948006800F48060CE
:1012100018B1E06808B90120B7E65548406820F0E9
:10122000F850217C40EA01605149486039E0E068AB
:1012300000B34F48006840F480704D490860FFF7E4
:1012400035FC054606E0FFF731FC401B022801D9BA
:1012500003209AE64648006800F480600028F2D037
:101260004348406820F0F850217C40EA0160404942
:10127000486016E03E48006820F480703C490860F1
:10128000FFF714FC054606E0FFF710FC401B0228A0
:1012900001D9032079E63648006800F48060002810
:1012A000F2D1207800F00800082836D16069D0B16A
:1012B0002F489430006840F001002D49C1F8940097
:1012C000FFF7F4FB054606E0FFF7F0FB401B0228A2
:1012D00001D9032059E626489430006800F0020046
:1012E0000028F1D019E022489430006820F0010075
:1012F0001F49C1F89400FFF7D9FB054606E0FFF748
:10130000D5FB401B022801D903203EE61848943043
:10131000006800F002000028F1D1207800F00400FD
:10132000042870D14FF000091148806D00F0805002
:1013300078B900BF0E48806D40F080500C49886538
:101340000846806D00F08050009000BF00BF4FF055
:1013500001090A48006800F48070F0B90748006885
:1013600040F4807005490860FFF7A0FB05460EE0D9
:1013700000100240B025000800000020007000406E
:10138000FFF794FB401B022801D90320FDE59B4891
:10139000006800F480700028F2D000BFA068012827
:1013A00008D19748006840F0010095499039C1F88C
:1013B000900021E0A06805280FD19148006840F016
:1013C00004008F499039C1F890000846D0F8900089
:1013D00040F00100C1F890000EE08948006820F05C
:1013E000010087499039C1F890000846D0F8900074
:1013F00020F00400C1F8900000BFA068A0B1FFF782
:1014000055FB054609E02EE0FFF750FB401B41F27B
:101410008831884201D90320B7E57948006800F097
:1014200002000028F0D012E0FFF740FB054608E07C
:10143000FFF73CFB401B41F28831884201D9032071
:10144000A3E56F48006800F002000028F0D1B9F170
:10145000010F07D16A489038806D20F080506849AC
:101460009039886500BF207800F02000202838D10E
:10147000606AD8B162480830006840F001006049F5
:101480009039C1F89800FFF711FB054606E0FFF719
:101490000DFB401B022801D9032076E5584808308F
:1014A000006800F002000028F1D01AE0544808302B
:1014B000006820F0010052499039C1F89800FFF708
:1014C000F5FA054606E0FFF7F1FA401B022801D9BC
:1014D00003205AE54A480830006800F0020000285E
:1014E000F1D1A06AF0B30C2E74D0A06A022853D1B7
:1014F00043489038006820F0807041499039086076
:10150000FFF7D4FA054606E0FFF7D0FA401B0228A1
:1015100001D9032039E53A489038006800F000709E
:101520000028F1D1206B401E0101606B41EA0020D0
:10153000E16A0843A18F0122C2EB510140EA415107
:101540004020005DC2EB500041EA40613820005D60
:1015500041EAC0602A499039C8600846006840F0F6
:10156000807000E048E008600846C06840F0807085
:10157000C860FFF79BFA054606E0FFF797FA401BA5
:10158000022801D9032000E51D489038006800F0CA
:1015900000700028F1D02FE019489038006820F042
:1015A00080701749903908600846006800F00060B4
:1015B00020B90846C06820F00300C8601048903881
:1015C000C068104908400E499039C860FFF76EFAAC
:1015D000054607E00EE0FFF769FA401B022801D933
:1015E0000320D2E406489038006800F0007000281C
:1015F000F1D101E00120C8E40020C6E40070004001
:1016000090100240FFFFEEFE70477047704710B524
:1016100004460CB9012010BD94F83D0028B9002003
:1016200084F83C00204600F00CF8022084F83D00CD
:10163000211D206800F0B6FA012084F83D0000204A
:10164000E9E7704701460868C06840F001000A6891
:10165000D060086880680B4A1040062805D00868EA
:1016600080681040B0F5803F01D1012000E00020EB
:1016700028B90868006840F001000A68106000207E
:101680007047000007000100704710B5044620684D
:101690000069C0F34000D8B12068C068C0F34000C2
:1016A000B0B16FF002002168086101202077206846
:1016B000806900F0030018B12046FFF7E5FF05E060
:1016C000204600F0BEF8204600F0BCF8002020774D
:1016D00020680069C0F38000D8B12068C068C0F3FA
:1016E0008000B0B16FF0040021680861022020770B
:1016F0002068806900F4407018B12046FFF7C4FFED
:1017000005E0204600F09DF8204600F09BF8002000
:10171000207720680069C0F3C000D8B12068C06895
:10172000C0F3C000B0B16FF0080021680861042068
:1017300020772068C06900F0030018B12046FFF749
:10174000A3FF05E0204600F07CF8204600F07AF880
:101750000020207720680069C0F30010D8B120680D
:10176000C068C0F30010B0B16FF0100021680861CC
:10177000082020772068C06900F4407018B1204626
:10178000FFF782FF05E0204600F05BF8204600F0FE
:1017900059F8002020772068006900F0010058B156
:1017A0002068C06800F0010030B16FF001002168CE
:1017B0000861204600F047F820680069C0F3C010B7
:1017C00058B12068C068C0F3C01030B16FF080001D
:1017D000216808612046FFF718FF20680069C0F300
:1017E000002058B12068C068C0F3C01030B16FF459
:1017F0008070216808612046FFF706FF20680069B5
:10180000C0F3801058B12068C068C0F3801030B1B8
:101810006FF0400021680861204600F019F8206848
:101820000069C0F3401058B12068C068C0F3401090
:1018300030B16FF02000216808612046FFF7E6FE16
:1018400010BD7047704710B50446FFF735F910BD5D
:10185000704710B504460CB9012010BDA06900B155
:1018600000E000BF94F8710028B9002084F87000EF
:10187000204600F02BF8242084F8710020680068CE
:1018800020F0010021680860204600F07BFA012862
:1018900000D1E2E7606A10B1204600F0BDF920688F
:1018A000406820F49040216848602068806820F0FB
:1018B0002A00216888602068006840F001002168E3
:1018C0000860204600F024FAC7E7000010B586B093
:1018D00004461A49206888422ED100BF1848C06CBF
:1018E00040F002001649C8640846C06C00F00200CF
:1018F000009000BF00BF00BF0846006E40F480406B
:1019000008660846006E00F48040009000BF00BFEB
:1019100040200190022002900120039002200490B8
:101920000720059001A90748FEF7DCFF8020019001
:1019300001A90448FEF7D6FF06B010BD00380140EB
:10194000001002400004004800BFFEE700BFFEE7B1
:101950007047000002480068C0F302207047000092
:101960000CED00E010B5002807DA0A07140E054A4E
:1019700000F00F031B1FD45403E00A07130E024AA2
:10198000135410BD18ED00E000E400E070470000C3
:10199000F8B5044600262348806D00F0805018B149
:1019A000FFF750F9054616E000BF1E48806D40F075
:1019B00080501C4988650846806D00F0805000907A
:1019C00000BF00BFFFF73EF905461648806D20F0C6
:1019D000805014498865B5F5007F07D1802C10D957
:1019E000A02C01D902260CE001260AE0802C01D9A6
:1019F000032606E0802C01D1022602E0702C00D1E3
:101A000001260948006820F00700304306490860B5
:101A10000846006800F00700B04201D00120F8BD80
:101A20000020FCE700100240002002407047000048
:101A300070B506460E4806700121007800F062FD80
:101A4000002512E0082000F04FFC04465CB10220A3
:101A50002070002060700120A0706560214604485D
:101A6000007800F003FD681CC5B20A2DEADB70BDEA
:101A70001800002070B506460C4604F4004070B112
:101A80000C48007800F0C2FC051E05D0284600F086
:101A900055FD284600F03EFC84F4004070BD04F083
:101AA000010028B104A0FEF79BFC84F00100F5E7DB
:101AB0000020F3E7180000203E3E3E3E3E6576657E
:101AC0006E743A205342505F53544152545F444520
:101AD000564943455F45565420200D0A000000003A
:101AE00010B5FEF7E9FF10BD00B597B010200190CA
:101AF00001200790602009900020089002200B90A0
:101B000001210C910D9128210E91022111910721A3
:101B10000F910421109101A8FFF732FA08B100BF1C
:101B2000FEE70F20129003201390002014901590D0
:101B30001690042112A8FFF78DF808B100BFFEE748
:101B400017B000BD1048006840F470000E490860EE
:101B50000E48006840F001000C49086000208860D1
:101B6000084600680A490840084908608814C860A7
:101B70000846006820F48020086000208861C803BF
:101B8000014980390860704788ED00E0001002408C
:101B9000FFFFF6EA10B50248FFF777FD10BD000021
:101BA0001C00002010B50268184B984202D0B0F11A
:101BB000804F03D122F070024B681A43134B9842B6
:101BC00008D0B0F1804F05D0114B984202D0114B94
:101BD000984203D122F44072CB681A4322F080036A
:101BE0004C6943EA040202608B68C3620B6883623B
:101BF000064B984205D0064B984202D0054B9842BE
:101C000001D10B6903630123436110BD002C014026
:101C1000004001400044014090F8241001F001010F
:101C200039B10168496821F40031826A11430268C0
:101C3000516090F8241001F00201022907D10168D7
:101C4000496821F48031C26A11430268516090F8FA
:101C5000241001F00401042907D10168496821F426
:101C60008021026B11430268516090F8241001F04A
:101C70000801082907D10168496821F40041426B35
:101C800011430268516090F8241001F010011029EE
:101C900007D10168896821F48051826B1143026881
:101CA000916090F8241001F02001202907D10168EB
:101CB000896821F40051C26B11430268916090F869
:101CC000241001F04001402913D10168496821F432
:101CD0008011026C114302685160016CB1F5801FE4
:101CE00007D10168496821F4C001426C11430268C0
:101CF000516090F8241001F08001802907D101681B
:101D0000496821F40021826C1143026851607047D8
:101D100038B50446002500206067FEF7C7FE05467B
:101D20002068006800F0080008280CD16FF07E40A1
:101D30002B4600224FF400110090204600F02BFAB1
:101D400008B1032038BD2068006800F004000428B2
:101D50000CD16FF07E402B4600224FF480010090A2
:101D6000204600F018FA08B10320EBE7202084F8A1
:101D7000710084F8720000BF002084F8700000BF7A
:101D800000BFDFE72DE9F84F04464FF000091026A9
:101D90004FF0000B0025002000908246F349206898
:101DA000884200D100E000BF2169A0680843616952
:101DB0000843E16940EA010920680068EC490840ED
:101DC00040EA0900216808602068406820F440501B
:101DD000E168084321684860D4F81890E349206816
:101DE000884202D0206A40EA09092068806820F40D
:101DF000306040EA09002168886000BFDD49206842
:101E0000884216D1DC48006800F0030030B1012898
:101E100008D0022804D0032808D105E0012607E0F5
:101E2000022605E0042603E0082601E0102600BF94
:101E300053E0D2492068884216D1CF48006800F0AC
:101E40000C0030B1042808D0082804D00C2808D190
:101E500005E0002607E0022605E0042603E0082648
:101E600001E0102600BF38E0C5492068884216D13D
:101E7000C148006800F0300030B1102808D0202898
:101E800004D0302808D105E0002607E0022605E04E
:101E9000042603E0082601E0102600BF1DE0B34938
:101EA0002068884219D1B448006800F4406048B105
:101EB000B0F5806F0AD0B0F5006F05D0B0F5406F77
:101EC00008D105E0002607E0022605E0042603E02D
:101ED000082601E0102600BF00BF00BFA34920680C
:101EE000884272D1042E10D003DC3EB1022E13D1F1
:101EF00008E0082E0DD0102E0ED10EE0FEF78EFF5A
:101F000082460DE0DFF87CA20AE0FEF7ABFF8246D6
:101F100006E04FF4004A03E000BF0120009000BF3C
:101F200000BFBAF1000F0AD0606800EB40005045D6
:101F300003D860680003504502D2012000900FE1F1
:101F4000042E2ED003DC3EB1022E51D118E0082E13
:101F50003CD0102E4CD14CE0FEF760FF4FF4807166
:101F6000A0FB0130616849085F1840F10001D4F816
:101F700004C0624600233846FEF7BBF905463BE045
:101F8000D4F804C04FEA5C0000217F4BC71841EB36
:101F9000010862460B4638464146FEF7AAF9054657
:101FA0002AE0FEF75FFF4FF48071A0FB013061680B
:101FB00049085F1840F10001D4F804C062460023CC
:101FC0003846FEF796F9054616E022E0D4F804C03C
:101FD0004FEA5C0000214FF40003C71841EB0108F1
:101FE00062460B4638464146FEF783F9054603E054
:101FF00000BF0120009000BF00BFB5F5407F05D3B2
:10200000B5F5801F02D22068C560A9E001200090CC
:10201000A6E0E069B0F5004F57D1042E28D005DCCA
:102020004EB1012E11D0022E36D118E0082E29D043
:10203000102E31D131E0FEF7F1FE4000616800EB77
:102040005100B0FBF1F085B22AE0FEF7F9FE400046
:10205000616800EB5100B0FBF1F085B220E04B4924
:10206000606801EB50006168B0FBF1F085B217E0E9
:10207000FEF7F8FE4000616800EB5100B0FBF1F0A4
:1020800085B20DE04FF48031606801EB500061686B
:10209000B0FBF1F085B203E000BF0120009000BF6B
:1020A00000BF102D0ED3B5F5803F0BD24FF6F07068
:1020B00005EA000BC5F342004BEA000B2068C0F8AC
:1020C0000CB04DE0012000904AE0042E26D005DC43
:1020D0004EB1012E10D0022E33D116E0082E26D09C
:1020E000102E2ED12EE0FEF799FE616800EB510014
:1020F000B0FBF1F085B228E0FEF7A2FE616800EBCC
:102100005100B0FBF1F085B21FE01E49606801EBA1
:1021100050006168B0FBF1F085B216E0FEF7A2FE58
:10212000616800EB5100B0FBF1F085B20DE04FF4B7
:102130000041606801EB50006168B0FBF1F085B2CE
:1021400003E000BF0120009000BF00BF102D05D3A9
:10215000B5F5803F02D22068C56001E00120009003
:10216000002020666066009800F012B800800040F1
:10217000F369FFEF0038014088100240004400403E
:10218000004800400024F400000024F40048E80166
:1021900018BCBDE8E08F2DE9F04104460D46174616
:1021A0009846069E21E0701CF8B12EB1FEF77EFC29
:1021B000A0EB0800B04218D92068006820F4D07065
:1021C000216808602068806820F00100216888602C
:1021D000202084F8710084F8720000BF002084F889
:1021E000700000BF0320BDE8F0812068C06928406E
:1021F000A84201D1012000E00020B842D3D0002045
:10220000F1E700BFFEE700BF7047000000BF054ACE
:102210001268D269C2F38012002AF8D0C2B2024B0F
:102220001A8070475C0000202838014010B5FEF786
:102230004BFCFFF759FC00F09FF900F031F800F07B
:1022400079F9002010BD000010B50024022000F034
:1022500031F806490860022200210448006800F0B5
:1022600039F82046FFF7E4FB10BD00001400002001
:1022700002460948007882420CDA72B607480068C4
:1022800030F812008843054B1B6823F8120062B631
:10229000002070470320FCE7FC2500081400002004
:1022A00010B5002002490860FFF7CEFF002010BDE6
:1022B0000C00002010B5044621460120FDF7DEFF8A
:1022C00010BD10B5044604B910BD2046FDF7EAFF65
:1022D00000BFF9E770B504460D461646324629465A
:1022E0002046FEF7F9F870BD70B505460DB900201F
:1022F00070BD05F1080188B2FFF7DCFF04463CB170
:1023000000202060A580FF20A07104F10800EFE705
:102310000020EDE770B504460CB9052070BDA4F1AE
:1023200008008079FF2801D00420F7E7A4F1080510
:102330002846FFF7C6FF0020F0E772B6002341F8F9
:10234000083C03680BB9016009E0026801E052F83B
:10235000082C52F8083C002BF9D142F8081C62B650
:102360007047000070B505460C4616460CB90520AE
:1023700070BD15480078854204DB2046FFF7CAFF90
:102380000320F5E754F8080C20B9A4F1080080797F
:10239000FF2804D02046FFF7BDFF0520E8E7A4F1A1
:1023A00008008571012E04D12146084800F026F866
:1023B00003E021460548FFF7C0FF4FF400412846DF
:1023C00000F0A0F80020D3E7FC2500080C00002056
:1023D00010B572B603688B4203D151F8083C036014
:1023E00003E051F8083C42F8083C002341F8083C5F
:1023F000FF24A1F108039C7162B610BD72B6026899
:1024000041F8082C016062B670470000F0B506463E
:102410000027002572B6144804680CE0A4F10800F7
:102420008079B04203D10DB9254600E005E005B939
:10243000274654F8084C002CF0D100BF2CB14FF4C3
:102440000041304600F05EF804E04FF400413046B1
:10245000FFF70EFF25B13A4629460348FFF7B8FFBC
:1024600062B62846F0BD00000C00002070B504469E
:102470000D46002229462046FFF774FF70BD00007C
:1024800070B5002400BF1B48006830F8140000B18C
:1024900006E0601CC0B20446174909788842F2DBA6
:1024A00000BF15480078844222DA72B611480068ED
:1024B00030F8145000200F49096821F8140062B662
:1024C0000E4804700E4850F82420294620469047B4
:1024D0000546FF200949087072B60648006830F8C2
:1024E000140028430349096821F8140062B600BFAC
:1024F00070BD000014000020FC2500081000002022
:10250000F825000802460948007882420CDA72B6C3
:102510000748006830F812000843054B1B6823F891
:10252000120062B6002070470320FCE7FC2500087B
:102530001400002000BFFFF7A3FFFCE710B504461E
:102540002078012802D0022807D100E006E0A17817
:1025500003A06268FDF744FF00E000BF00BF10BDAC
:10256000206964203D20256420A1A264617461205B
:102570003D202564200D0A0010B508480849086070
:102580004FF4E1304860002105488160C16001617D
:1025900081610C214161FFF75CF910BD00380140F9
:1025A0005C0000204FF04070E1EE100A7047000020
:1025B00000000000000000000102030406070809F3
:1025C0000000000001020304A0860100400D03008A
:1025D000801A060000350C0040420F0080841E0067
:1025E00000093D0000127A000024F40000366E015C
:1025F0000048E801006CDC02751A000801000000C8
:1026000020260008000000201C000000C80100086F
:102610003C2600081C0000201C070000E401000804
:1026200000093D0000000000000000000000000064
:0C263000FF00000000000000000000009F
:040000050800018D61
:00000001FF
